{
  "contractName": "TodoList",
  "abi": [
    {
      "constant": true,
      "inputs": [],
      "name": "testCount",
      "outputs": [
        {
          "internalType": "uint256",
          "name": "",
          "type": "uint256"
        }
      ],
      "payable": false,
      "stateMutability": "view",
      "type": "function"
    }
  ],
  "bytecode": "0x608060405260008055348015601357600080fd5b506080806100226000396000f3fe6080604052348015600f57600080fd5b506004361060285760003560e01c80639590d4b914602d575b600080fd5b60336045565b60408051918252519081900360200190f35b6000548156fea265627a7a72315820e13e0d720d0231cfe654fe64eff4cdf97ef1b0f3e9ed8071f4b00c5e42cd392864736f6c63430005100032",
  "source": "pragma solidity ^0.5.0;\n\ncontract TodoList { //contract must be lower case!\n    uint public testCount = 0; // state variables are written to the blockchain\n    // public allows taskCount can be read from contract\n\n}\n\n// on compile will create a JSON representation of the smarth contract (abstract binary interface, etc)",
  "sourcePath": "/home/mattg/eth-todo-list/contracts/TodoList.sol",
  "compiler": {
    "name": "solc",
    "version": "0.5.16+commit.9c3226ce.Emscripten.clang"
  },
  "schemaVersion": "3.3.3",
  "updatedAt": "2021-01-31T20:36:02.783Z",
  "networkType": "ethereum",
  "devdoc": {
    "methods": {}
  },
  "userdoc": {
    "methods": {}
  }
}